{
  "contractName": "Market",
  "abi": [
    {
      "constant": true,
      "inputs": [
        {
          "name": "price",
          "type": "uint256"
        }
      ],
      "name": "getTickAmount",
      "outputs": [
        {
          "name": "",
          "type": "uint256"
        }
      ],
      "payable": false,
      "stateMutability": "view",
      "type": "function"
    },
    {
      "constant": false,
      "inputs": [
        {
          "name": "price",
          "type": "uint256"
        },
        {
          "name": "amount",
          "type": "uint256"
        }
      ],
      "name": "bid",
      "outputs": [],
      "payable": false,
      "stateMutability": "nonpayable",
      "type": "function"
    },
    {
      "constant": true,
      "inputs": [],
      "name": "lastBid",
      "outputs": [
        {
          "name": "",
          "type": "uint256"
        }
      ],
      "payable": false,
      "stateMutability": "view",
      "type": "function"
    },
    {
      "constant": false,
      "inputs": [
        {
          "name": "price",
          "type": "uint256"
        },
        {
          "name": "amount",
          "type": "uint256"
        }
      ],
      "name": "ask",
      "outputs": [],
      "payable": false,
      "stateMutability": "nonpayable",
      "type": "function"
    },
    {
      "constant": true,
      "inputs": [],
      "name": "lastAsk",
      "outputs": [
        {
          "name": "",
          "type": "uint256"
        }
      ],
      "payable": false,
      "stateMutability": "view",
      "type": "function"
    },
    {
      "constant": true,
      "inputs": [],
      "name": "lastTrade",
      "outputs": [
        {
          "name": "",
          "type": "uint256"
        }
      ],
      "payable": false,
      "stateMutability": "view",
      "type": "function"
    },
    {
      "constant": true,
      "inputs": [],
      "name": "secondary",
      "outputs": [
        {
          "name": "",
          "type": "address"
        }
      ],
      "payable": false,
      "stateMutability": "view",
      "type": "function"
    },
    {
      "constant": true,
      "inputs": [
        {
          "name": "price",
          "type": "uint256"
        }
      ],
      "name": "tickRelations",
      "outputs": [
        {
          "name": "prev",
          "type": "uint256"
        },
        {
          "name": "next",
          "type": "uint256"
        }
      ],
      "payable": false,
      "stateMutability": "view",
      "type": "function"
    },
    {
      "constant": true,
      "inputs": [],
      "name": "askCount",
      "outputs": [
        {
          "name": "",
          "type": "uint256"
        }
      ],
      "payable": false,
      "stateMutability": "view",
      "type": "function"
    },
    {
      "constant": true,
      "inputs": [
        {
          "name": "",
          "type": "uint256"
        }
      ],
      "name": "orders",
      "outputs": [
        {
          "name": "total",
          "type": "uint256"
        }
      ],
      "payable": false,
      "stateMutability": "view",
      "type": "function"
    },
    {
      "constant": true,
      "inputs": [],
      "name": "bidCount",
      "outputs": [
        {
          "name": "",
          "type": "uint256"
        }
      ],
      "payable": false,
      "stateMutability": "view",
      "type": "function"
    },
    {
      "constant": true,
      "inputs": [],
      "name": "primary",
      "outputs": [
        {
          "name": "",
          "type": "address"
        }
      ],
      "payable": false,
      "stateMutability": "view",
      "type": "function"
    },
    {
      "inputs": [
        {
          "name": "_primary",
          "type": "address"
        },
        {
          "name": "_secondary",
          "type": "address"
        }
      ],
      "payable": false,
      "stateMutability": "nonpayable",
      "type": "constructor"
    },
    {
      "anonymous": false,
      "inputs": [
        {
          "indexed": false,
          "name": "price",
          "type": "uint256"
        },
        {
          "indexed": false,
          "name": "amount",
          "type": "uint256"
        }
      ],
      "name": "Bid",
      "type": "event"
    },
    {
      "anonymous": false,
      "inputs": [
        {
          "indexed": false,
          "name": "price",
          "type": "uint256"
        },
        {
          "indexed": false,
          "name": "amount",
          "type": "uint256"
        }
      ],
      "name": "Ask",
      "type": "event"
    },
    {
      "anonymous": false,
      "inputs": [
        {
          "indexed": false,
          "name": "msg",
          "type": "string"
        }
      ],
      "name": "Log",
      "type": "event"
    }
  ],
  "bytecode": "0x606060405260006002556000600355600060045560006005556000600655341561002857600080fd5b604051604080610e3183398101604052808051906020019091908051906020019091905050816000806101000a81548173ffffffffffffffffffffffffffffffffffffffff021916908373ffffffffffffffffffffffffffffffffffffffff16021790555080600160006101000a81548173ffffffffffffffffffffffffffffffffffffffff021916908373ffffffffffffffffffffffffffffffffffffffff1602179055505050610d52806100df6000396000f3006060604052600436106100ba576000357c0100000000000000000000000000000000000000000000000000000000900463ffffffff1680631fe93c4e146100bf578063598647f8146100f65780635e3d3957146101225780636f9410831461014b57806378041cdb146101775780639b44cb3c146101a05780639d3c8cc4146101c95780639da423471461021e578063a394fda71461025c578063a85c38ef14610285578063b40a5627146102bc578063c6dbdf61146102e5575b600080fd5b34156100ca57600080fd5b6100e0600480803590602001909190505061033a565b6040518082815260200191505060405180910390f35b341561010157600080fd5b61012060048080359060200190919080359060200190919050506103a1565b005b341561012d57600080fd5b610135610583565b6040518082815260200191505060405180910390f35b341561015657600080fd5b6101756004808035906020019091908035906020019091905050610589565b005b341561018257600080fd5b61018a610975565b6040518082815260200191505060405180910390f35b34156101ab57600080fd5b6101b361097b565b6040518082815260200191505060405180910390f35b34156101d457600080fd5b6101dc610981565b604051808273ffffffffffffffffffffffffffffffffffffffff1673ffffffffffffffffffffffffffffffffffffffff16815260200191505060405180910390f35b341561022957600080fd5b61023f60048080359060200190919050506109a7565b604051808381526020018281526020019250505060405180910390f35b341561026757600080fd5b61026f6109fa565b6040518082815260200191505060405180910390f35b341561029057600080fd5b6102a66004808035906020019091905050610a00565b6040518082815260200191505060405180910390f35b34156102c757600080fd5b6102cf610a1e565b6040518082815260200191505060405180910390f35b34156102f057600080fd5b6102f8610a24565b604051808273ffffffffffffffffffffffffffffffffffffffff1673ffffffffffffffffffffffffffffffffffffffff16815260200191505060405180910390f35b6000600960003373ffffffffffffffffffffffffffffffffffffffff1673ffffffffffffffffffffffffffffffffffffffff1681526020019081526020016000208281548110151561038857fe5b9060005260206000209060030201600101549050919050565b6103a9610c3f565b6000807f47a0375b24d90a3895ca7fd01feef2864adfa0b83dd13508f93800383057812f8585604051808381526020018281526020019250505060405180910390a16060604051908101604052803373ffffffffffffffffffffffffffffffffffffffff168152602001858152602001868152509250600354851015801561043357506000600354115b156104465761044183610a49565b61057c565b6008600086815260200190815260200160002091508382600001600082825401925050819055508160010180548060010182816104839190610c77565b9160005260206000209060030201600085909190915060008201518160000160006101000a81548173ffffffffffffffffffffffffffffffffffffffff021916908373ffffffffffffffffffffffffffffffffffffffff1602179055506020820151816001015560408201518160020155505050600182600101805490501415610569576002548511156105315761052c6002548660016007610a60909392919063ffffffff16565b610568565b61054c6002548660006007610aae909392919063ffffffff16565b9050610567818660016007610a60909392919063ffffffff16565b5b5b60025485111561057b57846002819055505b5b5050505050565b60025481565b610591610c3f565b6000807f4d0cc27b87db0edacb7b7003a13cc11c9c37e52248780ec7df92b4256e1a39578585604051808381526020018281526020019250505060405180910390a16060604051908101604052803373ffffffffffffffffffffffffffffffffffffffff168152602001858152602001868152509250600254851115801561061b57506000600254115b1561062e5761062983610b13565b61096e565b60086000868152602001908152602001600020915083826000016000828254019250508190555081600101805480600101828161066b9190610c77565b9160005260206000209060030201600085909190915060008201518160000160006101000a81548173ffffffffffffffffffffffffffffffffffffffff021916908373ffffffffffffffffffffffffffffffffffffffff160217905550602082015181600101556040820151816002015550505060018260010180549050141561095b5760006003541415610781577fcf34ef537ac33ee1ac626ca1587a0a7e8e51561e5514f8cb36afa1c5102b3bab6040518080602001828103825260038152602001807f4f6e65000000000000000000000000000000000000000000000000000000000081525060200191505060405180910390a161077c60008660016007610a60909392919063ffffffff16565b61095a565b600354851015610813577fcf34ef537ac33ee1ac626ca1587a0a7e8e51561e5514f8cb36afa1c5102b3bab6040518080602001828103825260038152602001807f54776f000000000000000000000000000000000000000000000000000000000081525060200191505060405180910390a161080e6003548660006007610a60909392919063ffffffff16565b610959565b61082a6000806007610b2a9092919063ffffffff16565b8510156108d4577fcf34ef537ac33ee1ac626ca1587a0a7e8e51561e5514f8cb36afa1c5102b3bab6040518080602001828103825260058152602001807f546872656500000000000000000000000000000000000000000000000000000081525060200191505060405180910390a16108b46003548660016007610aae909392919063ffffffff16565b90506108cf818660006007610a60909392919063ffffffff16565b610958565b7fcf34ef537ac33ee1ac626ca1587a0a7e8e51561e5514f8cb36afa1c5102b3bab6040518080602001828103825260048152602001807f466f75720000000000000000000000000000000000000000000000000000000081525060200191505060405180910390a16109576003548660016007610a60909392919063ffffffff16565b5b5b5b5b60035485111561096d57846003819055505b5b5050505050565b60035481565b60065481565b600160009054906101000a900473ffffffffffffffffffffffffffffffffffffffff1681565b6000806109b2610ca9565b6109c6846007610b6090919063ffffffff16565b90508060006002811015156109d757fe5b602002015192508060016002811015156109ed57fe5b6020020151915050915091565b60055481565b60086020528060005260406000206000915090508060000154905081565b60045481565b6000809054906101000a900473ffffffffffffffffffffffffffffffffffffffff1681565b806040015160068190555060065460028190555050565b6000846000016000858152602001908152602001600020600083151515158152602001908152602001600020549050610a9b85858585610bda565b610aa785848385610bda565b5050505050565b6000610abb858584610b2a565b90505b808314158015610ad45750811515818410151514155b15610b0b57846000016000828152602001908152602001600020600083151515158152602001908152602001600020549050610abe565b949350505050565b806040015160068190555060065460038190555050565b60008360000160008481526020019081526020016000206000831515151581526020019081526020016000205490509392505050565b610b68610ca9565b60408051908101604052808460000160008581526020019081526020016000206000801515151581526020019081526020016000205481526020018460000160008581526020019081526020016000206000600115151515815260200190815260200160002054815250905092915050565b828460000160008481526020019081526020016000206000831515151515815260200190815260200160002081905550818460000160008581526020019081526020016000206000831515151581526020019081526020016000208190555050505050565b606060405190810160405280600073ffffffffffffffffffffffffffffffffffffffff16815260200160008152602001600081525090565b815481835581811511610ca457600302816003028360005260206000209182019101610ca39190610cd0565b5b505050565b60408051908101604052806002905b6000815260200190600190039081610cb85790505090565b610d2391905b80821115610d1f57600080820160006101000a81549073ffffffffffffffffffffffffffffffffffffffff02191690556001820160009055600282016000905550600301610cd6565b5090565b905600a165627a7a723058208cc243b62810ea29342b6cd78f89f7784b5a1760fe8660e674b42936c8bc2c410029",
  "source": "pragma solidity ^0.4.18;\n\nimport { CLLu } from './libs/CLL.sol';\nimport { ERC20 } from './interfaces/ERC20.sol';\n\ncontract Market {\n  using CLLu for CLLu.CLL;\n\n  ERC20 public primary;\n  ERC20 public secondary;\n\n  uint public lastBid = 0;\n  uint public lastAsk = 0;\n  uint public bidCount = 0;\n  uint public askCount = 0;\n  uint public lastTrade = 0;\n\n  struct Order {\n    address account;\n    uint amount;\n    uint price;\n  }\n\n  struct Tick {\n    uint total;\n    Order[] orders;\n  }\n\n  event Bid(uint price, uint amount);\n  event Ask(uint price, uint amount);\n  event Log(string msg);\n\n  CLLu.CLL orderList;\n  mapping(uint => Tick) public orders;\n\n  mapping(address => Order[]) ordersByAccount;\n\n  function Market(address _primary, address _secondary) public {\n    primary = ERC20(_primary);\n    secondary = ERC20(_secondary);\n  }\n\n  function getTickAmount(uint price) public view returns (uint) {\n    return ordersByAccount[msg.sender][price].amount;\n  }\n\n  function tickRelations(uint price) public view returns (uint prev, uint next) {\n    uint[2] memory node = orderList.getNode(price);\n    prev = node[0];\n    next = node[1];\n  }\n\n  function bid(uint price, uint amount) public {\n    Bid(price, amount);\n    Order memory order = Order(msg.sender, amount, price);\n\n    // If there's an ask order already, process the order right away\n    if (price >= lastAsk && lastAsk > 0) {\n      buy(order);\n      return;\n    }\n\n    Tick storage tick = orders[price];\n    tick.total += amount;\n    tick.orders.push(order);\n\n    // Insert a CLL reference only if a new tick was created\n    if (tick.orders.length == 1) {\n      if (price > lastBid) {\n        orderList.insert(lastBid, price, true);\n      } else {\n        uint ref = orderList.seek(lastBid, price, false);\n        orderList.insert(ref, price, true);\n      }\n    }\n\n    // If this is the highest bid, then set the current bid to this\n    if (price > lastBid) {\n      lastBid = price;\n    }\n  }\n\n  function ask(uint price, uint amount) public {\n    Ask(price, amount);\n    Order memory order = Order(msg.sender, amount, price);\n\n    // If there's an bid order already, process the order right away\n    if (price <= lastBid && lastBid > 0) {\n      sell(order);\n      return;\n    }\n\n    Tick storage tick = orders[price];\n    tick.total += amount;\n    tick.orders.push(order);\n\n    // Insert a CLL reference only if a new tick was created\n    if (tick.orders.length == 1) {\n      if (lastAsk == 0) {\n        Log('One');\n        // Without this check, it creates an infinite loop\n        orderList.insert(0, price, true);\n      } else if (price < lastAsk) {\n        Log('Two');\n        orderList.insert(lastAsk, price, false);\n      } else if (price < orderList.step(0, false)) {\n        Log('Three');\n        uint ref = orderList.seek(lastAsk, price, true);\n        orderList.insert(ref, price, false);\n      } else {\n        Log('Four');\n        orderList.insert(lastAsk, price, true);\n      }\n    }\n\n    // If this is the lowest ask, then set the current ask to this\n    if (price > lastAsk) {\n      lastAsk = price;\n    }\n  }\n\n  function buy(Order bidOrder) internal {\n    lastTrade = bidOrder.price;\n    lastBid = lastTrade;\n  }\n\n  function sell(Order askOrder) internal {\n    lastTrade = askOrder.price;\n    lastAsk = lastTrade;\n  }\n}\n",
  "sourcePath": "/Users/diegobarahona/Documents/Research/DExChain/packages/exchange/contracts/Market.sol",
  "compiler": {
    "name": "solc",
    "version": "0.4.18+commit.9cf6e910.Emscripten.clang"
  },
  "schemaVersion": "1.0.1",
  "updatedAt": "2018-01-31T22:58:57.803Z"
}